{
  "contractName": "Election1",
  "abi": [
    {
      "constant": true,
      "inputs": [
        {
          "internalType": "address",
          "name": "",
          "type": "address"
        }
      ],
      "name": "Candidates",
      "outputs": [
        {
          "internalType": "string",
          "name": "Name",
          "type": "string"
        },
        {
          "internalType": "string",
          "name": "Address",
          "type": "string"
        },
        {
          "internalType": "uint256",
          "name": "Age",
          "type": "uint256"
        },
        {
          "internalType": "uint256",
          "name": "Contact",
          "type": "uint256"
        }
      ],
      "payable": false,
      "stateMutability": "view",
      "type": "function"
    },
    {
      "constant": true,
      "inputs": [
        {
          "internalType": "uint256",
          "name": "",
          "type": "uint256"
        }
      ],
      "name": "CandidatesArray",
      "outputs": [
        {
          "internalType": "address",
          "name": "",
          "type": "address"
        }
      ],
      "payable": false,
      "stateMutability": "view",
      "type": "function"
    },
    {
      "constant": true,
      "inputs": [
        {
          "internalType": "address",
          "name": "",
          "type": "address"
        }
      ],
      "name": "ElelctionsCollection",
      "outputs": [
        {
          "internalType": "string",
          "name": "typeOfElection",
          "type": "string"
        },
        {
          "internalType": "string",
          "name": "constituency",
          "type": "string"
        },
        {
          "internalType": "string",
          "name": "organizer",
          "type": "string"
        },
        {
          "internalType": "string",
          "name": "electionDate",
          "type": "string"
        },
        {
          "internalType": "string",
          "name": "resultDate",
          "type": "string"
        },
        {
          "internalType": "uint256",
          "name": "ICRD",
          "type": "uint256"
        },
        {
          "internalType": "uint256",
          "name": "FCRD",
          "type": "uint256"
        },
        {
          "internalType": "uint256",
          "name": "voters",
          "type": "uint256"
        },
        {
          "internalType": "uint256",
          "name": "candidates",
          "type": "uint256"
        }
      ],
      "payable": false,
      "stateMutability": "view",
      "type": "function"
    },
    {
      "constant": true,
      "inputs": [
        {
          "internalType": "address",
          "name": "",
          "type": "address"
        }
      ],
      "name": "Organizers",
      "outputs": [
        {
          "internalType": "string",
          "name": "username",
          "type": "string"
        },
        {
          "internalType": "string",
          "name": "organization",
          "type": "string"
        },
        {
          "internalType": "uint256",
          "name": "contact",
          "type": "uint256"
        }
      ],
      "payable": false,
      "stateMutability": "view",
      "type": "function"
    },
    {
      "constant": true,
      "inputs": [
        {
          "internalType": "uint256",
          "name": "",
          "type": "uint256"
        }
      ],
      "name": "OrganizersArray",
      "outputs": [
        {
          "internalType": "address",
          "name": "",
          "type": "address"
        }
      ],
      "payable": false,
      "stateMutability": "view",
      "type": "function"
    },
    {
      "constant": true,
      "inputs": [],
      "name": "count",
      "outputs": [
        {
          "internalType": "uint256",
          "name": "",
          "type": "uint256"
        }
      ],
      "payable": false,
      "stateMutability": "view",
      "type": "function"
    }
  ],
  "bytecode": "0x608060405234801561001057600080fd5b50610d04806100206000396000f3fe608060405234801561001057600080fd5b50600436106100625760003560e01c806306661abd146100675780631bf45ffb146100855780631d051fc01461030e5780634b353ceb1461037c5780637aa84fff146103ea578063f39f05f71461051a575b600080fd5b61006f610651565b6040518082815260200191505060405180910390f35b6100c76004803603602081101561009b57600080fd5b81019080803573ffffffffffffffffffffffffffffffffffffffff169060200190929190505050610657565b6040518080602001806020018060200180602001806020018a815260200189815260200188815260200187815260200186810386528f818151815260200191508051906020019080838360005b8381101561012f578082015181840152602081019050610114565b50505050905090810190601f16801561015c5780820380516001836020036101000a031916815260200191505b5086810385528e818151815260200191508051906020019080838360005b8381101561019557808201518184015260208101905061017a565b50505050905090810190601f1680156101c25780820380516001836020036101000a031916815260200191505b5086810384528d818151815260200191508051906020019080838360005b838110156101fb5780820151818401526020810190506101e0565b50505050905090810190601f1680156102285780820380516001836020036101000a031916815260200191505b5086810383528c818151815260200191508051906020019080838360005b83811015610261578082015181840152602081019050610246565b50505050905090810190601f16801561028e5780820380516001836020036101000a031916815260200191505b5086810382528b818151815260200191508051906020019080838360005b838110156102c75780820151818401526020810190506102ac565b50505050905090810190601f1680156102f45780820380516001836020036101000a031916815260200191505b509e50505050505050505050505050505060405180910390f35b61033a6004803603602081101561032457600080fd5b810190808035906020019092919050505061099d565b604051808273ffffffffffffffffffffffffffffffffffffffff1673ffffffffffffffffffffffffffffffffffffffff16815260200191505060405180910390f35b6103a86004803603602081101561039257600080fd5b81019080803590602001909291905050506109d9565b604051808273ffffffffffffffffffffffffffffffffffffffff1673ffffffffffffffffffffffffffffffffffffffff16815260200191505060405180910390f35b61042c6004803603602081101561040057600080fd5b81019080803573ffffffffffffffffffffffffffffffffffffffff169060200190929190505050610a15565b604051808060200180602001848152602001838103835286818151815260200191508051906020019080838360005b8381101561047657808201518184015260208101905061045b565b50505050905090810190601f1680156104a35780820380516001836020036101000a031916815260200191505b50838103825285818151815260200191508051906020019080838360005b838110156104dc5780820151818401526020810190506104c1565b50505050905090810190601f1680156105095780820380516001836020036101000a031916815260200191505b509550505050505060405180910390f35b61055c6004803603602081101561053057600080fd5b81019080803573ffffffffffffffffffffffffffffffffffffffff169060200190929190505050610b6f565b604051808060200180602001858152602001848152602001838103835287818151815260200191508051906020019080838360005b838110156105ac578082015181840152602081019050610591565b50505050905090810190601f1680156105d95780820380516001836020036101000a031916815260200191505b50838103825286818151815260200191508051906020019080838360005b838110156106125780820151818401526020810190506105f7565b50505050905090810190601f16801561063f5780820380516001836020036101000a031916815260200191505b50965050505050505060405180910390f35b60055481565b6002602052806000526040600020600091509050806000018054600181600116156101000203166002900480601f0160208091040260200160405190810160405280929190818152602001828054600181600116156101000203166002900480156107035780601f106106d857610100808354040283529160200191610703565b820191906000526020600020905b8154815290600101906020018083116106e657829003601f168201915b505050505090806001018054600181600116156101000203166002900480601f0160208091040260200160405190810160405280929190818152602001828054600181600116156101000203166002900480156107a15780601f10610776576101008083540402835291602001916107a1565b820191906000526020600020905b81548152906001019060200180831161078457829003601f168201915b505050505090806002018054600181600116156101000203166002900480601f01602080910402602001604051908101604052809291908181526020018280546001816001161561010002031660029004801561083f5780601f106108145761010080835404028352916020019161083f565b820191906000526020600020905b81548152906001019060200180831161082257829003601f168201915b505050505090806003018054600181600116156101000203166002900480601f0160208091040260200160405190810160405280929190818152602001828054600181600116156101000203166002900480156108dd5780601f106108b2576101008083540402835291602001916108dd565b820191906000526020600020905b8154815290600101906020018083116108c057829003601f168201915b505050505090806004018054600181600116156101000203166002900480601f01602080910402602001604051908101604052809291908181526020018280546001816001161561010002031660029004801561097b5780601f106109505761010080835404028352916020019161097b565b820191906000526020600020905b81548152906001019060200180831161095e57829003601f168201915b5050505050908060050154908060060154908060070154908060080154905089565b600481815481106109aa57fe5b906000526020600020016000915054906101000a900473ffffffffffffffffffffffffffffffffffffffff1681565b600381815481106109e657fe5b906000526020600020016000915054906101000a900473ffffffffffffffffffffffffffffffffffffffff1681565b6000602052806000526040600020600091509050806000018054600181600116156101000203166002900480601f016020809104026020016040519081016040528092919081815260200182805460018160011615610100020316600290048015610ac15780601f10610a9657610100808354040283529160200191610ac1565b820191906000526020600020905b815481529060010190602001808311610aa457829003601f168201915b505050505090806001018054600181600116156101000203166002900480601f016020809104026020016040519081016040528092919081815260200182805460018160011615610100020316600290048015610b5f5780601f10610b3457610100808354040283529160200191610b5f565b820191906000526020600020905b815481529060010190602001808311610b4257829003601f168201915b5050505050908060020154905083565b6001602052806000526040600020600091509050806000018054600181600116156101000203166002900480601f016020809104026020016040519081016040528092919081815260200182805460018160011615610100020316600290048015610c1b5780601f10610bf057610100808354040283529160200191610c1b565b820191906000526020600020905b815481529060010190602001808311610bfe57829003601f168201915b505050505090806001018054600181600116156101000203166002900480601f016020809104026020016040519081016040528092919081815260200182805460018160011615610100020316600290048015610cb95780601f10610c8e57610100808354040283529160200191610cb9565b820191906000526020600020905b815481529060010190602001808311610c9c57829003601f168201915b505050505090806002015490806003015490508456fea265627a7a7231582031521b1986923b05e57c466bb8f5c5b1f43acbe17a6b135ba7b57aae58de93c764736f6c63430005100032",
  "source": "pragma solidity ^0.5.0;\n\ncontract Election1{\n    \n    struct Organizer{\n        string username;\n        string organization;\n        uint contact;\n        //uint numberOfElelction;\n    }\n    \n    struct Candidate{\n        string Name;\n        string Address;\n        uint Age;\n        uint Contact;\n        //uint numberOfElelction;\n    }\n    \n    struct Elections{\n        string typeOfElection;\n        string constituency;\n        string organizer;\n        string electionDate;\n        string resultDate;\n        uint ICRD;\n        uint FCRD;\n        uint voters;\n        uint candidates;\n    }\n    \n    //maaping of organizer and candidates with thier addresses\n    mapping (address => Organizer) public Organizers;\n    mapping (address => Candidate) public Candidates;\n    mapping (address => Elections) public ElelctionsCollection;\n    address[] public OrganizersArray;\n    address[] public CandidatesArray;\n    uint public count;\n\n\n    \n    // //function for registering the Organizer\n    // function addOrganizer(string memory _name, string memory _org, uint _contact) public {\n    //     Organizers[msg.sender].name = _name;\n    //     Organizers[msg.sender].organization = _org;\n    //     Organizers[msg.sender].contact = _contact;\n        \n    //     OrganizersArray.push(msg.sender);\n    // }\n\n    // function addCount(uint _num) public{\n    //     count = _num;\n    // }\n\n    // function countUp() public view returns(uint){\n    //     return count;\n    // }\n\n    // function seeThrough(address _addr) public view returns(address){\n    //     return _addr;\n    // }\n    \n    //  //function for registering the Candidate\n    // function newCandidate(string memory _name, string memory _address, uint _age, uint _contact) public {\n    //     Candidates[msg.sender].Name = _name;\n    //     Candidates[msg.sender].Address = _address;\n    //     Candidates[msg.sender].Age = _age;\n    //     Candidates[msg.sender].Contact = _contact;\n        \n    //     CandidatesArray.push(msg.sender);\n    // }\n    \n    // //function for get the data of organizer from its address\n    // function getOrganizer(address _add) public view returns(string memory, string memory, uint){\n    //     return(Organizers[_add].name, Organizers[_add].organization, Organizers[_add].contact );\n    // }\n    \n    // //function for get the data of candidate from its address\n    // function getCandidate(address _add) public view returns(string memory, string memory, uint, uint){\n    //     return(Candidates[_add].Name, Candidates[_add].Address, Candidates[_add].Age, Candidates[_add].Contact);\n    // }\n    \n    // //function for counting the number of candidates\n    // function candidateCount() public view returns(uint){\n    //     return CandidatesArray.length;\n    // }\n    \n    // //function for counting the number of candidates\n    // function organizerCount() public view returns(uint){\n    //     return OrganizersArray.length;\n    // }\n    \n    // //function modifier for only organizer can call the election function\n    // modifier onlyOrganizer{\n        \n    //     for(uint i=0;i<=OrganizersArray.length-1;i++){\n    //        require(msg.sender == OrganizersArray[i]);\n    //        _;\n    //     }\n       \n    // }\n    \n    // //function for creating election\n    // function createElection(string memory _ToE, string memory _constitunecy, string memory _Org, string memory _ED, string memory _RD,uint _ICRD, uint _FCRD, uint _voters, uint _candidates) public {\n    //     ElelctionsCollection[msg.sender].typeOfElection = _ToE;\n    //     ElelctionsCollection[msg.sender].constituency = _constitunecy;\n    //     ElelctionsCollection[msg.sender].organizer = _Org;\n    //     ElelctionsCollection[msg.sender].electionDate = _ED;\n    //     ElelctionsCollection[msg.sender].resultDate = _RD;\n    //     ElelctionsCollection[msg.sender].ICRD = _ICRD;\n    //     ElelctionsCollection[msg.sender].FCRD = _FCRD;\n    //     ElelctionsCollection[msg.sender].voters = _voters;\n    //     ElelctionsCollection[msg.sender].candidates = _candidates;\n    // }\n    \n    // //function for get the election data according to the organizer's Address\n    // function getElelction(address _add) public view returns(string memory, string memory, string memory, string memory, string memory, uint, uint, uint, uint){\n    //     return(ElelctionsCollection[_add].typeOfElection, ElelctionsCollection[_add].constituency, ElelctionsCollection[_add].organizer, ElelctionsCollection[_add].electionDate, ElelctionsCollection[_add].resultDate, ElelctionsCollection[_add].ICRD, ElelctionsCollection[_add].FCRD, ElelctionsCollection[_add].voters, ElelctionsCollection[_add].candidates);\n    // }\n    \n    \n    \n}",
  "sourcePath": "C:\\Users\\Bhawna\\Desktop\\Bhawna Project\\DigiVote-master\\DigiVote-master\\contracts\\Election1.sol",
  "compiler": {
    "name": "solc",
    "version": "0.5.16+commit.9c3226ce.Emscripten.clang"
  },
  "schemaVersion": "3.2.0",
  "updatedAt": "2020-06-09T07:39:30.946Z",
  "networkType": "ethereum",
  "devdoc": {
    "methods": {}
  },
  "userdoc": {
    "methods": {}
  }
}