{
  "contractName": "Election",
  "abi": [
    {
      "constant": true,
      "inputs": [
        {
          "internalType": "uint256",
          "name": "",
          "type": "uint256"
        }
      ],
      "name": "ElectionRequests",
      "outputs": [
        {
          "internalType": "string",
          "name": "username",
          "type": "string"
        },
        {
          "internalType": "string",
          "name": "electionHash",
          "type": "string"
        },
        {
          "internalType": "string",
          "name": "time",
          "type": "string"
        },
        {
          "internalType": "string",
          "name": "place",
          "type": "string"
        },
        {
          "internalType": "string",
          "name": "status",
          "type": "string"
        }
      ],
      "payable": false,
      "stateMutability": "view",
      "type": "function"
    },
    {
      "constant": true,
      "inputs": [
        {
          "internalType": "uint256",
          "name": "",
          "type": "uint256"
        }
      ],
      "name": "Elections",
      "outputs": [
        {
          "internalType": "string",
          "name": "",
          "type": "string"
        }
      ],
      "payable": false,
      "stateMutability": "view",
      "type": "function"
    },
    {
      "constant": false,
      "inputs": [
        {
          "internalType": "string",
          "name": "_username",
          "type": "string"
        },
        {
          "internalType": "string",
          "name": "_hash",
          "type": "string"
        }
      ],
      "name": "setOrganizerCredentials",
      "outputs": [],
      "payable": false,
      "stateMutability": "nonpayable",
      "type": "function"
    },
    {
      "constant": false,
      "inputs": [
        {
          "internalType": "string",
          "name": "_username",
          "type": "string"
        },
        {
          "internalType": "string",
          "name": "_hash",
          "type": "string"
        }
      ],
      "name": "setOrganizerPersonal",
      "outputs": [],
      "payable": false,
      "stateMutability": "nonpayable",
      "type": "function"
    },
    {
      "constant": true,
      "inputs": [
        {
          "internalType": "string",
          "name": "_username",
          "type": "string"
        }
      ],
      "name": "getOrganizerCredentials",
      "outputs": [
        {
          "internalType": "string",
          "name": "",
          "type": "string"
        }
      ],
      "payable": false,
      "stateMutability": "view",
      "type": "function"
    },
    {
      "constant": true,
      "inputs": [
        {
          "internalType": "string",
          "name": "_username",
          "type": "string"
        }
      ],
      "name": "getOrganizerPersonal",
      "outputs": [
        {
          "internalType": "string",
          "name": "",
          "type": "string"
        }
      ],
      "payable": false,
      "stateMutability": "view",
      "type": "function"
    },
    {
      "constant": true,
      "inputs": [],
      "name": "getOrganizersCount",
      "outputs": [
        {
          "internalType": "uint256",
          "name": "",
          "type": "uint256"
        }
      ],
      "payable": false,
      "stateMutability": "view",
      "type": "function"
    },
    {
      "constant": true,
      "inputs": [
        {
          "internalType": "string",
          "name": "_username",
          "type": "string"
        }
      ],
      "name": "findOrganizer",
      "outputs": [
        {
          "internalType": "bool",
          "name": "",
          "type": "bool"
        }
      ],
      "payable": false,
      "stateMutability": "view",
      "type": "function"
    },
    {
      "constant": false,
      "inputs": [
        {
          "internalType": "address",
          "name": "_add",
          "type": "address"
        },
        {
          "internalType": "string",
          "name": "_hash",
          "type": "string"
        }
      ],
      "name": "addElection",
      "outputs": [
        {
          "internalType": "bool",
          "name": "",
          "type": "bool"
        }
      ],
      "payable": false,
      "stateMutability": "nonpayable",
      "type": "function"
    },
    {
      "constant": true,
      "inputs": [
        {
          "internalType": "address",
          "name": "_add",
          "type": "address"
        },
        {
          "internalType": "uint256",
          "name": "_index",
          "type": "uint256"
        }
      ],
      "name": "getElection",
      "outputs": [
        {
          "internalType": "string",
          "name": "",
          "type": "string"
        }
      ],
      "payable": false,
      "stateMutability": "view",
      "type": "function"
    },
    {
      "constant": true,
      "inputs": [
        {
          "internalType": "address",
          "name": "_add",
          "type": "address"
        }
      ],
      "name": "organizerElectionCount",
      "outputs": [
        {
          "internalType": "uint256",
          "name": "",
          "type": "uint256"
        }
      ],
      "payable": false,
      "stateMutability": "view",
      "type": "function"
    },
    {
      "constant": true,
      "inputs": [
        {
          "internalType": "uint256",
          "name": "_index",
          "type": "uint256"
        }
      ],
      "name": "getElections",
      "outputs": [
        {
          "internalType": "string",
          "name": "",
          "type": "string"
        }
      ],
      "payable": false,
      "stateMutability": "view",
      "type": "function"
    },
    {
      "constant": true,
      "inputs": [],
      "name": "electionsCount",
      "outputs": [
        {
          "internalType": "uint256",
          "name": "",
          "type": "uint256"
        }
      ],
      "payable": false,
      "stateMutability": "view",
      "type": "function"
    },
    {
      "constant": false,
      "inputs": [
        {
          "internalType": "string",
          "name": "_username",
          "type": "string"
        },
        {
          "internalType": "string",
          "name": "_hash",
          "type": "string"
        }
      ],
      "name": "setCandidateCredentials",
      "outputs": [],
      "payable": false,
      "stateMutability": "nonpayable",
      "type": "function"
    },
    {
      "constant": false,
      "inputs": [
        {
          "internalType": "string",
          "name": "_username",
          "type": "string"
        },
        {
          "internalType": "string",
          "name": "_hash",
          "type": "string"
        }
      ],
      "name": "setCandidatePersonal",
      "outputs": [],
      "payable": false,
      "stateMutability": "nonpayable",
      "type": "function"
    },
    {
      "constant": true,
      "inputs": [
        {
          "internalType": "string",
          "name": "_username",
          "type": "string"
        }
      ],
      "name": "getCandidateCredentials",
      "outputs": [
        {
          "internalType": "string",
          "name": "",
          "type": "string"
        }
      ],
      "payable": false,
      "stateMutability": "view",
      "type": "function"
    },
    {
      "constant": true,
      "inputs": [
        {
          "internalType": "string",
          "name": "_username",
          "type": "string"
        }
      ],
      "name": "getCandidatePersonal",
      "outputs": [
        {
          "internalType": "string",
          "name": "",
          "type": "string"
        }
      ],
      "payable": false,
      "stateMutability": "view",
      "type": "function"
    },
    {
      "constant": true,
      "inputs": [],
      "name": "getCandidatesCount",
      "outputs": [
        {
          "internalType": "uint256",
          "name": "",
          "type": "uint256"
        }
      ],
      "payable": false,
      "stateMutability": "view",
      "type": "function"
    },
    {
      "constant": true,
      "inputs": [
        {
          "internalType": "string",
          "name": "_username",
          "type": "string"
        }
      ],
      "name": "findCandidate",
      "outputs": [
        {
          "internalType": "bool",
          "name": "",
          "type": "bool"
        }
      ],
      "payable": false,
      "stateMutability": "view",
      "type": "function"
    },
    {
      "constant": false,
      "inputs": [
        {
          "internalType": "string",
          "name": "_username",
          "type": "string"
        },
        {
          "internalType": "string",
          "name": "_electionHash",
          "type": "string"
        },
        {
          "internalType": "string",
          "name": "_time",
          "type": "string"
        },
        {
          "internalType": "string",
          "name": "_place",
          "type": "string"
        },
        {
          "internalType": "string",
          "name": "_status",
          "type": "string"
        }
      ],
      "name": "setRequest",
      "outputs": [],
      "payable": false,
      "stateMutability": "nonpayable",
      "type": "function"
    },
    {
      "constant": true,
      "inputs": [
        {
          "internalType": "string",
          "name": "_username",
          "type": "string"
        },
        {
          "internalType": "uint256",
          "name": "_index",
          "type": "uint256"
        }
      ],
      "name": "getRequest",
      "outputs": [
        {
          "internalType": "string",
          "name": "",
          "type": "string"
        },
        {
          "internalType": "string",
          "name": "",
          "type": "string"
        },
        {
          "internalType": "string",
          "name": "",
          "type": "string"
        },
        {
          "internalType": "string",
          "name": "",
          "type": "string"
        },
        {
          "internalType": "string",
          "name": "",
          "type": "string"
        }
      ],
      "payable": false,
      "stateMutability": "view",
      "type": "function"
    },
    {
      "constant": true,
      "inputs": [
        {
          "internalType": "string",
          "name": "_username",
          "type": "string"
        }
      ],
      "name": "candidateRequestsCount",
      "outputs": [
        {
          "internalType": "uint256",
          "name": "",
          "type": "uint256"
        }
      ],
      "payable": false,
      "stateMutability": "view",
      "type": "function"
    },
    {
      "constant": true,
      "inputs": [
        {
          "internalType": "uint256",
          "name": "_index",
          "type": "uint256"
        }
      ],
      "name": "getAllRequest",
      "outputs": [
        {
          "internalType": "string",
          "name": "",
          "type": "string"
        },
        {
          "internalType": "string",
          "name": "",
          "type": "string"
        },
        {
          "internalType": "string",
          "name": "",
          "type": "string"
        },
        {
          "internalType": "string",
          "name": "",
          "type": "string"
        },
        {
          "internalType": "string",
          "name": "",
          "type": "string"
        }
      ],
      "payable": false,
      "stateMutability": "view",
      "type": "function"
    },
    {
      "constant": true,
      "inputs": [],
      "name": "requestsCount",
      "outputs": [
        {
          "internalType": "uint256",
          "name": "",
          "type": "uint256"
        }
      ],
      "payable": false,
      "stateMutability": "view",
      "type": "function"
    },
    {
      "constant": false,
      "inputs": [
        {
          "internalType": "uint256",
          "name": "_allRequestIndex",
          "type": "uint256"
        },
        {
          "internalType": "uint256",
          "name": "_candidateRequestIndex",
          "type": "uint256"
        },
        {
          "internalType": "string",
          "name": "_username",
          "type": "string"
        },
        {
          "internalType": "string",
          "name": "_status",
          "type": "string"
        }
      ],
      "name": "updateRequestStatus",
      "outputs": [],
      "payable": false,
      "stateMutability": "nonpayable",
      "type": "function"
    },
    {
      "constant": false,
      "inputs": [
        {
          "internalType": "string",
          "name": "_electionHash",
          "type": "string"
        },
        {
          "internalType": "string",
          "name": "_username",
          "type": "string"
        },
        {
          "internalType": "string",
          "name": "_place",
          "type": "string"
        }
      ],
      "name": "addCandidate",
      "outputs": [],
      "payable": false,
      "stateMutability": "nonpayable",
      "type": "function"
    },
    {
      "constant": true,
      "inputs": [
        {
          "internalType": "string",
          "name": "_electionHash",
          "type": "string"
        }
      ],
      "name": "countElectionCandidates",
      "outputs": [
        {
          "internalType": "uint256",
          "name": "",
          "type": "uint256"
        }
      ],
      "payable": false,
      "stateMutability": "view",
      "type": "function"
    },
    {
      "constant": true,
      "inputs": [
        {
          "internalType": "string",
          "name": "_electionHash",
          "type": "string"
        },
        {
          "internalType": "uint256",
          "name": "_index",
          "type": "uint256"
        }
      ],
      "name": "getSelectedCandidates",
      "outputs": [
        {
          "internalType": "string",
          "name": "",
          "type": "string"
        },
        {
          "internalType": "uint256",
          "name": "",
          "type": "uint256"
        },
        {
          "internalType": "string",
          "name": "",
          "type": "string"
        }
      ],
      "payable": false,
      "stateMutability": "view",
      "type": "function"
    },
    {
      "constant": false,
      "inputs": [
        {
          "internalType": "string",
          "name": "_electionHash",
          "type": "string"
        },
        {
          "internalType": "string",
          "name": "_username",
          "type": "string"
        },
        {
          "internalType": "uint256",
          "name": "_index",
          "type": "uint256"
        }
      ],
      "name": "voteSelectedCandidates",
      "outputs": [],
      "payable": false,
      "stateMutability": "nonpayable",
      "type": "function"
    },
    {
      "constant": true,
      "inputs": [
        {
          "internalType": "string",
          "name": "_electionHash",
          "type": "string"
        }
      ],
      "name": "aadhaarCount",
      "outputs": [
        {
          "internalType": "uint256",
          "name": "",
          "type": "uint256"
        }
      ],
      "payable": false,
      "stateMutability": "view",
      "type": "function"
    },
    {
      "constant": true,
      "inputs": [
        {
          "internalType": "string",
          "name": "_electionHash",
          "type": "string"
        },
        {
          "internalType": "uint256",
          "name": "_index",
          "type": "uint256"
        }
      ],
      "name": "checkAadhaar",
      "outputs": [
        {
          "internalType": "uint256",
          "name": "",
          "type": "uint256"
        }
      ],
      "payable": false,
      "stateMutability": "view",
      "type": "function"
    },
    {
      "constant": false,
      "inputs": [
        {
          "internalType": "string",
          "name": "_electionHash",
          "type": "string"
        },
        {
          "internalType": "uint256",
          "name": "_aadhaar",
          "type": "uint256"
        }
      ],
      "name": "addAadhaar",
      "outputs": [],
      "payable": false,
      "stateMutability": "nonpayable",
      "type": "function"
    },
    {
      "constant": false,
      "inputs": [
        {
          "internalType": "string",
          "name": "_voterHash",
          "type": "string"
        },
        {
          "internalType": "address",
          "name": "_add",
          "type": "address"
        },
        {
          "internalType": "string",
          "name": "_password",
          "type": "string"
        }
      ],
      "name": "addVoterAccount",
      "outputs": [],
      "payable": false,
      "stateMutability": "nonpayable",
      "type": "function"
    },
    {
      "constant": true,
      "inputs": [
        {
          "internalType": "string",
          "name": "_voterHash",
          "type": "string"
        }
      ],
      "name": "getVoterAccount",
      "outputs": [
        {
          "internalType": "address",
          "name": "",
          "type": "address"
        },
        {
          "internalType": "string",
          "name": "",
          "type": "string"
        }
      ],
      "payable": false,
      "stateMutability": "view",
      "type": "function"
    },
    {
      "constant": false,
      "inputs": [
        {
          "internalType": "string",
          "name": "_electionHash",
          "type": "string"
        },
        {
          "internalType": "string",
          "name": "_voterHash",
          "type": "string"
        }
      ],
      "name": "addVoterToElection",
      "outputs": [],
      "payable": false,
      "stateMutability": "nonpayable",
      "type": "function"
    },
    {
      "constant": true,
      "inputs": [
        {
          "internalType": "string",
          "name": "_electionHash",
          "type": "string"
        },
        {
          "internalType": "uint256",
          "name": "_index",
          "type": "uint256"
        }
      ],
      "name": "getVoterToElection",
      "outputs": [
        {
          "internalType": "string",
          "name": "",
          "type": "string"
        }
      ],
      "payable": false,
      "stateMutability": "view",
      "type": "function"
    }
  ],
  "bytecode": "0x608060405234801561001057600080fd5b5061592b80620000216000396000f3fe608060405234801561001057600080fd5b506004361061021c5760003560e01c8063877cef1911610125578063c6954bb9116100ad578063d25329931161007c578063d2532993146127ce578063d25d65c414612934578063f0a1880a14612a86578063f856c02714612b4d578063fbfa4b7f14612c1c5761021c565b8063c6954bb91461214d578063c85a26621461229f578063ca9d5e741461236e578063cf05ed42146124e05761021c565b8063a97dd664116100f4578063a97dd66414611c0f578063ad71f8dc14611d43578063ae84295314611f2c578063b1c0fbf614612088578063bb9aa28f1461212f5761021c565b8063877cef191461182d5780639a74c6951461197f578063a62a4b041461199d578063a732f1f114611ad15761021c565b80634f764622116101a85780635e737393116101775780635e73739314611127578063711906881461127957806371fef2c7146114d0578063751d09eb146115a957806376830a0d1461175a5761021c565b80634f76462214610bbc5780635752b7a314610e13578063584399ee14610ee257806359b2dc8514610fd55761021c565b8063288cb036116101ef578063288cb036146107315780633b76293d1461080457806340916f171461085c5780634ae62591146109215780634d539b7d14610a555761021c565b8063039f6ac2146102215780631d81955d1461023f5780631e9598e21461037357806327f8583c1461041a575b600080fd5b610229612c3a565b6040518082815260200191505060405180910390f35b6102f86004803603602081101561025557600080fd5b810190808035906020019064010000000081111561027257600080fd5b82018360208201111561028457600080fd5b803590602001918460018302840111640100000000831117156102a657600080fd5b91908080601f016020809104026020016040519081016040528093929190818152602001838380828437600081840152601f19601f820116905080830192505050505050509192919290505050612c47565b6040518080602001828103825283818151815260200191508051906020019080838360005b8381101561033857808201518184015260208101905061031d565b50505050905090810190601f1680156103655780820380516001836020036101000a031916815260200191505b509250505060405180910390f35b61039f6004803603602081101561038957600080fd5b8101908080359060200190929190505050612d52565b6040518080602001828103825283818151815260200191508051906020019080838360005b838110156103df5780820151818401526020810190506103c4565b50505050905090810190601f16801561040c5780820380516001836020036101000a031916815260200191505b509250505060405180910390f35b61072f600480360360a081101561043057600080fd5b810190808035906020019064010000000081111561044d57600080fd5b82018360208201111561045f57600080fd5b8035906020019184600183028401116401000000008311171561048157600080fd5b91908080601f016020809104026020016040519081016040528093929190818152602001838380828437600081840152601f19601f820116905080830192505050505050509192919290803590602001906401000000008111156104e457600080fd5b8201836020820111156104f657600080fd5b8035906020019184600183028401116401000000008311171561051857600080fd5b91908080601f016020809104026020016040519081016040528093929190818152602001838380828437600081840152601f19601f8201169050808301925050505050505091929192908035906020019064010000000081111561057b57600080fd5b82018360208201111561058d57600080fd5b803590602001918460018302840111640100000000831117156105af57600080fd5b91908080601f016020809104026020016040519081016040528093929190818152602001838380828437600081840152601f19601f8201169050808301925050505050505091929192908035906020019064010000000081111561061257600080fd5b82018360208201111561062457600080fd5b8035906020019184600183028401116401000000008311171561064657600080fd5b91908080601f016020809104026020016040519081016040528093929190818152602001838380828437600081840152601f19601f820116905080830192505050505050509192919290803590602001906401000000008111156106a957600080fd5b8201836020820111156106bb57600080fd5b803590602001918460018302840111640100000000831117156106dd57600080fd5b91908080601f016020809104026020016040519081016040528093929190818152602001838380828437600081840152601f19601f820116905080830192505050505050509192919290505050612e0b565b005b6107ea6004803603602081101561074757600080fd5b810190808035906020019064010000000081111561076457600080fd5b82018360208201111561077657600080fd5b8035906020019184600183028401116401000000008311171561079857600080fd5b91908080601f016020809104026020016040519081016040528093929190818152602001838380828437600081840152601f19601f820116905080830192505050505050509192919290505050613049565b604051808215151515815260200191505060405180910390f35b6108466004803603602081101561081a57600080fd5b81019080803573ffffffffffffffffffffffffffffffffffffffff16906020019092919050505061318a565b6040518082815260200191505060405180910390f35b61091f6004803603604081101561087257600080fd5b810190808035906020019064010000000081111561088f57600080fd5b8201836020820111156108a157600080fd5b803590602001918460018302840111640100000000831117156108c357600080fd5b91908080601f016020809104026020016040519081016040528093929190818152602001838380828437600081840152601f19601f820116905080830192505050505050509192919290803590602001909291905050506131d6565b005b6109da6004803603602081101561093757600080fd5b810190808035906020019064010000000081111561095457600080fd5b82018360208201111561096657600080fd5b8035906020019184600183028401116401000000008311171561098857600080fd5b91908080601f016020809104026020016040519081016040528093929190818152602001838380828437600081840152601f19601f820116905080830192505050505050509192919290505050613286565b6040518080602001828103825283818151815260200191508051906020019080838360005b83811015610a1a5780820151818401526020810190506109ff565b50505050905090810190601f168015610a475780820380516001836020036101000a031916815260200191505b509250505060405180910390f35b610b0e60048036036020811015610a6b57600080fd5b8101908080359060200190640100000000811115610a8857600080fd5b820183602082011115610a9a57600080fd5b80359060200191846001830284011164010000000083111715610abc57600080fd5b91908080601f016020809104026020016040519081016040528093929190818152602001838380828437600081840152601f19601f820116905080830192505050505050509192919290505050613391565b604051808373ffffffffffffffffffffffffffffffffffffffff1673ffffffffffffffffffffffffffffffffffffffff16815260200180602001828103825283818151815260200191508051906020019080838360005b83811015610b80578082015181840152602081019050610b65565b50505050905090810190601f168015610bad5780820380516001836020036101000a031916815260200191505b50935050505060405180910390f35b610be860048036036020811015610bd257600080fd5b8101908080359060200190929190505050613533565b60405180806020018060200180602001806020018060200186810386528b818151815260200191508051906020019080838360005b83811015610c38578082015181840152602081019050610c1d565b50505050905090810190601f168015610c655780820380516001836020036101000a031916815260200191505b5086810385528a818151815260200191508051906020019080838360005b83811015610c9e578082015181840152602081019050610c83565b50505050905090810190601f168015610ccb5780820380516001836020036101000a031916815260200191505b50868103845289818151815260200191508051906020019080838360005b83811015610d04578082015181840152602081019050610ce9565b50505050905090810190601f168015610d315780820380516001836020036101000a031916815260200191505b50868103835288818151815260200191508051906020019080838360005b83811015610d6a578082015181840152602081019050610d4f565b50505050905090810190601f168015610d975780820380516001836020036101000a031916815260200191505b50868103825287818151815260200191508051906020019080838360005b83811015610dd0578082015181840152602081019050610db5565b50505050905090810190601f168015610dfd5780820380516001836020036101000a031916815260200191505b509a505050505050505050505060405180910390f35b610ecc60048036036020811015610e2957600080fd5b8101908080359060200190640100000000811115610e4657600080fd5b820183602082011115610e5857600080fd5b80359060200191846001830284011164010000000083111715610e7a57600080fd5b91908080601f016020809104026020016040519081016040528093929190818152602001838380828437600081840152601f19601f82011690508083019250505050505050919291929050505061386e565b6040518082815260200191505060405180910390f35b610fbb60048036036040811015610ef857600080fd5b81019080803573ffffffffffffffffffffffffffffffffffffffff16906020019092919080359060200190640100000000811115610f3557600080fd5b820183602082011115610f4757600080fd5b80359060200191846001830284011164010000000083111715610f6957600080fd5b91908080601f016020809104026020016040519081016040528093929190818152602001838380828437600081840152601f19601f8201169050808301925050505050505091929192905050506138e4565b604051808215151515815260200191505060405180910390f35b61112560048036036040811015610feb57600080fd5b810190808035906020019064010000000081111561100857600080fd5b82018360208201111561101a57600080fd5b8035906020019184600183028401116401000000008311171561103c57600080fd5b91908080601f016020809104026020016040519081016040528093929190818152602001838380828437600081840152601f19601f8201169050808301925050505050505091929192908035906020019064010000000081111561109f57600080fd5b8201836020820111156110b157600080fd5b803590602001918460018302840111640100000000831117156110d357600080fd5b91908080601f016020809104026020016040519081016040528093929190818152602001838380828437600081840152601f19601f820116905080830192505050505050509192919290505050613b75565b005b6112776004803603604081101561113d57600080fd5b810190808035906020019064010000000081111561115a57600080fd5b82018360208201111561116c57600080fd5b8035906020019184600183028401116401000000008311171561118e57600080fd5b91908080601f016020809104026020016040519081016040528093929190818152602001838380828437600081840152601f19601f820116905080830192505050505050509192919290803590602001906401000000008111156111f157600080fd5b82018360208201111561120357600080fd5b8035906020019184600183028401116401000000008311171561122557600080fd5b91908080601f016020809104026020016040519081016040528093929190818152602001838380828437600081840152601f19601f820116905080830192505050505050509192919290505050613bf7565b005b6112a56004803603602081101561128f57600080fd5b8101908080359060200190929190505050613cba565b60405180806020018060200180602001806020018060200186810386528b818151815260200191508051906020019080838360005b838110156112f55780820151818401526020810190506112da565b50505050905090810190601f1680156113225780820380516001836020036101000a031916815260200191505b5086810385528a818151815260200191508051906020019080838360005b8381101561135b578082015181840152602081019050611340565b50505050905090810190601f1680156113885780820380516001836020036101000a031916815260200191505b50868103845289818151815260200191508051906020019080838360005b838110156113c15780820151818401526020810190506113a6565b50505050905090810190601f1680156113ee5780820380516001836020036101000a031916815260200191505b50868103835288818151815260200191508051906020019080838360005b8381101561142757808201518184015260208101905061140c565b50505050905090810190601f1680156114545780820380516001836020036101000a031916815260200191505b50868103825287818151815260200191508051906020019080838360005b8381101561148d578082015181840152602081019050611472565b50505050905090810190601f1680156114ba5780820380516001836020036101000a031916815260200191505b509a505050505050505050505060405180910390f35b611593600480360360408110156114e657600080fd5b810190808035906020019064010000000081111561150357600080fd5b82018360208201111561151557600080fd5b8035906020019184600183028401116401000000008311171561153757600080fd5b91908080601f016020809104026020016040519081016040528093929190818152602001838380828437600081840152601f19601f82011690508083019250505050505050919291929080359060200190929190505050614077565b6040518082815260200191505060405180910390f35b61166c600480360360408110156115bf57600080fd5b81019080803590602001906401000000008111156115dc57600080fd5b8201836020820111156115ee57600080fd5b8035906020019184600183028401116401000000008311171561161057600080fd5b91908080601f016020809104026020016040519081016040528093929190818152602001838380828437600081840152601f19601f82011690508083019250505050505050919291929080359060200190929190505050614103565b604051808060200184815260200180602001838103835286818151815260200191508051906020019080838360005b838110156116b657808201518184015260208101905061169b565b50505050905090810190601f1680156116e35780820380516001836020036101000a031916815260200191505b50838103825284818151815260200191508051906020019080838360005b8381101561171c578082015181840152602081019050611701565b50505050905090810190601f1680156117495780820380516001836020036101000a031916815260200191505b509550505050505060405180910390f35b6118136004803603602081101561177057600080fd5b810190808035906020019064010000000081111561178d57600080fd5b82018360208201111561179f57600080fd5b803590602001918460018302840111640100000000831117156117c157600080fd5b91908080601f016020809104026020016040519081016040528093929190818152602001838380828437600081840152601f19601f8201169050808301925050505050505091929192905050506143de565b604051808215151515815260200191505060405180910390f35b61197d6004803603604081101561184357600080fd5b810190808035906020019064010000000081111561186057600080fd5b82018360208201111561187257600080fd5b8035906020019184600183028401116401000000008311171561189457600080fd5b91908080601f016020809104026020016040519081016040528093929190818152602001838380828437600081840152601f19601f820116905080830192505050505050509192919290803590602001906401000000008111156118f757600080fd5b82018360208201111561190957600080fd5b8035906020019184600183028401116401000000008311171561192b57600080fd5b91908080601f016020809104026020016040519081016040528093929190818152602001838380828437600081840152601f19601f82011690508083019250505050505050919291929050505061451c565b005b6119876145dd565b6040518082815260200191505060405180910390f35b611a56600480360360208110156119b357600080fd5b81019080803590602001906401000000008111156119d057600080fd5b8201836020820111156119e257600080fd5b80359060200191846001830284011164010000000083111715611a0457600080fd5b91908080601f016020809104026020016040519081016040528093929190818152602001838380828437600081840152601f19601f8201169050808301925050505050505091929192905050506145ea565b6040518080602001828103825283818151815260200191508051906020019080838360005b83811015611a96578082015181840152602081019050611a7b565b50505050905090810190601f168015611ac35780820380516001836020036101000a031916815260200191505b509250505060405180910390f35b611b9460048036036040811015611ae757600080fd5b8101908080359060200190640100000000811115611b0457600080fd5b820183602082011115611b1657600080fd5b80359060200191846001830284011164010000000083111715611b3857600080fd5b91908080601f016020809104026020016040519081016040528093929190818152602001838380828437600081840152601f19601f820116905080830192505050505050509192919290803590602001909291905050506146f5565b6040518080602001828103825283818151815260200191508051906020019080838360005b83811015611bd4578082015181840152602081019050611bb9565b50505050905090810190601f168015611c015780820380516001836020036101000a031916815260200191505b509250505060405180910390f35b611cc860048036036020811015611c2557600080fd5b8101908080359060200190640100000000811115611c4257600080fd5b820183602082011115611c5457600080fd5b80359060200191846001830284011164010000000083111715611c7657600080fd5b91908080601f016020809104026020016040519081016040528093929190818152602001838380828437600081840152601f19601f820116905080830192505050505050509192919290505050614819565b6040518080602001828103825283818151815260200191508051906020019080838360005b83811015611d08578082015181840152602081019050611ced565b50505050905090810190601f168015611d355780820380516001836020036101000a031916815260200191505b509250505060405180910390f35b611f2a60048036036060811015611d5957600080fd5b8101908080359060200190640100000000811115611d7657600080fd5b820183602082011115611d8857600080fd5b80359060200191846001830284011164010000000083111715611daa57600080fd5b91908080601f016020809104026020016040519081016040528093929190818152602001838380828437600081840152601f19601f82011690508083019250505050505050919291929080359060200190640100000000811115611e0d57600080fd5b820183602082011115611e1f57600080fd5b80359060200191846001830284011164010000000083111715611e4157600080fd5b91908080601f016020809104026020016040519081016040528093929190818152602001838380828437600081840152601f19601f82011690508083019250505050505050919291929080359060200190640100000000811115611ea457600080fd5b820183602082011115611eb657600080fd5b80359060200191846001830284011164010000000083111715611ed857600080fd5b91908080601f016020809104026020016040519081016040528093929190818152602001838380828437600081840152601f19601f820116905080830192505050505050509192919290505050614924565b005b61208660048036036060811015611f4257600080fd5b8101908080359060200190640100000000811115611f5f57600080fd5b820183602082011115611f7157600080fd5b80359060200191846001830284011164010000000083111715611f9357600080fd5b91908080601f016020809104026020016040519081016040528093929190818152602001838380828437600081840152601f19601f82011690508083019250505050505050919291929080359060200190640100000000811115611ff657600080fd5b82018360208201111561200857600080fd5b8035906020019184600183028401116401000000008311171561202a57600080fd5b91908080601f016020809104026020016040519081016040528093929190818152602001838380828437600081840152601f19601f82011690508083019250505050505050919291929080359060200190929190505050614a20565b005b6120b46004803603602081101561209e57600080fd5b8101908080359060200190929190505050614ba9565b6040518080602001828103825283818151815260200191508051906020019080838360005b838110156120f45780820151818401526020810190506120d9565b50505050905090810190601f1680156121215780820380516001836020036101000a031916815260200191505b509250505060405180910390f35b612137614c62565b6040518082815260200191505060405180910390f35b61229d6004803603604081101561216357600080fd5b810190808035906020019064010000000081111561218057600080fd5b82018360208201111561219257600080fd5b803590602001918460018302840111640100000000831117156121b457600080fd5b91908080601f016020809104026020016040519081016040528093929190818152602001838380828437600081840152601f19601f8201169050808301925050505050505091929192908035906020019064010000000081111561221757600080fd5b82018360208201111561222957600080fd5b8035906020019184600183028401116401000000008311171561224b57600080fd5b91908080601f016020809104026020016040519081016040528093929190818152602001838380828437600081840152601f19601f820116905080830192505050505050509192919290505050614c6f565b005b612358600480360360208110156122b557600080fd5b81019080803590602001906401000000008111156122d257600080fd5b8201836020820111156122e457600080fd5b8035906020019184600183028401116401000000008311171561230657600080fd5b91908080601f016020809104026020016040519081016040528093929190818152602001838380828437600081840152601f19601f820116905080830192505050505050509192919290505050614d30565b6040518082815260200191505060405180910390f35b6124de6004803603606081101561238457600080fd5b81019080803590602001906401000000008111156123a157600080fd5b8201836020820111156123b357600080fd5b803590602001918460018302840111640100000000831117156123d557600080fd5b91908080601f016020809104026020016040519081016040528093929190818152602001838380828437600081840152601f19601f820116905080830192505050505050509192919290803573ffffffffffffffffffffffffffffffffffffffff1690602001909291908035906020019064010000000081111561245857600080fd5b82018360208201111561246a57600080fd5b8035906020019184600183028401116401000000008311171561248c57600080fd5b91908080601f016020809104026020016040519081016040528093929190818152602001838380828437600081840152601f19601f820116905080830192505050505050509192919290505050614da6565b005b6125a3600480360360408110156124f657600080fd5b810190808035906020019064010000000081111561251357600080fd5b82018360208201111561252557600080fd5b8035906020019184600183028401116401000000008311171561254757600080fd5b91908080601f016020809104026020016040519081016040528093929190818152602001838380828437600081840152601f19601f82011690508083019250505050505050919291929080359060200190929190505050614ea6565b60405180806020018060200180602001806020018060200186810386528b818151815260200191508051906020019080838360005b838110156125f35780820151818401526020810190506125d8565b50505050905090810190601f1680156126205780820380516001836020036101000a031916815260200191505b5086810385528a818151815260200191508051906020019080838360005b8381101561265957808201518184015260208101905061263e565b50505050905090810190601f1680156126865780820380516001836020036101000a031916815260200191505b50868103845289818151815260200191508051906020019080838360005b838110156126bf5780820151818401526020810190506126a4565b50505050905090810190601f1680156126ec5780820380516001836020036101000a031916815260200191505b50868103835288818151815260200191508051906020019080838360005b8381101561272557808201518184015260208101905061270a565b50505050905090810190601f1680156127525780820380516001836020036101000a031916815260200191505b50868103825287818151815260200191508051906020019080838360005b8381101561278b578082015181840152602081019050612770565b50505050905090810190601f1680156127b85780820380516001836020036101000a031916815260200191505b509a505050505050505050505060405180910390f35b612932600480360360808110156127e457600080fd5b8101908080359060200190929190803590602001909291908035906020019064010000000081111561281557600080fd5b82018360208201111561282757600080fd5b8035906020019184600183028401116401000000008311171561284957600080fd5b91908080601f016020809104026020016040519081016040528093929190818152602001838380828437600081840152601f19601f820116905080830192505050505050509192919290803590602001906401000000008111156128ac57600080fd5b8201836020820111156128be57600080fd5b803590602001918460018302840111640100000000831117156128e057600080fd5b91908080601f016020809104026020016040519081016040528093929190818152602001838380828437600081840152601f19601f820116905080830192505050505050509192919290505050615467565b005b612a846004803603604081101561294a57600080fd5b810190808035906020019064010000000081111561296757600080fd5b82018360208201111561297957600080fd5b8035906020019184600183028401116401000000008311171561299b57600080fd5b91908080601f016020809104026020016040519081016040528093929190818152602001838380828437600081840152601f19601f820116905080830192505050505050509192919290803590602001906401000000008111156129fe57600080fd5b820183602082011115612a1057600080fd5b80359060200191846001830284011164010000000083111715612a3257600080fd5b91908080601f016020809104026020016040519081016040528093929190818152602001838380828437600081840152601f19601f82011690508083019250505050505050919291929050505061553a565b005b612ad260048036036040811015612a9c57600080fd5b81019080803573ffffffffffffffffffffffffffffffffffffffff169060200190929190803590602001909291905050506155bc565b6040518080602001828103825283818151815260200191508051906020019080838360005b83811015612b12578082015181840152602081019050612af7565b50505050905090810190601f168015612b3f5780820380516001836020036101000a031916815260200191505b509250505060405180910390f35b612c0660048036036020811015612b6357600080fd5b8101908080359060200190640100000000811115612b8057600080fd5b820183602082011115612b9257600080fd5b80359060200191846001830284011164010000000083111715612bb457600080fd5b91908080601f016020809104026020016040519081016040528093929190818152602001838380828437600081840152601f19601f8201169050808301925050505050505091929192905050506156b6565b6040518082815260200191505060405180910390f35b612c2461572c565b6040518082815260200191505060405180910390f35b6000600280549050905090565b60606004826040518082805190602001908083835b60208310612c7f5780518252602082019150602081019050602083039250612c5c565b6001836020036101000a03801982511681845116808217855250505050505090500191505090815260200160405180910390208054600181600116156101000203166002900480601f016020809104026020016040519081016040528092919081815260200182805460018160011615610100020316600290048015612d465780601f10612d1b57610100808354040283529160200191612d46565b820191906000526020600020905b815481529060010190602001808311612d2957829003601f168201915b50505050509050919050565b60078181548110612d5f57fe5b906000526020600020016000915090508054600181600116156101000203166002900480601f016020809104026020016040519081016040528092919081815260200182805460018160011615610100020316600290048015612e035780601f10612dd857610100808354040283529160200191612e03565b820191906000526020600020905b815481529060010190602001808311612de657829003601f168201915b505050505081565b6008856040518082805190602001908083835b60208310612e415780518252602082019150602081019050602083039250612e1e565b6001836020036101000a03801982511681845116808217855250505050505090500191505090815260200160405180910390206040518060a0016040528087815260200186815260200185815260200184815260200183815250908060018154018082558091505090600182039060005260206000209060050201600090919290919091506000820151816000019080519060200190612ee29291906157d1565b506020820151816001019080519060200190612eff9291906157d1565b506040820151816002019080519060200190612f1c9291906157d1565b506060820151816003019080519060200190612f399291906157d1565b506080820151816004019080519060200190612f569291906157d1565b5050505060096040518060a0016040528087815260200186815260200185815260200184815260200183815250908060018154018082558091505090600182039060005260206000209060050201600090919290919091506000820151816000019080519060200190612fca9291906157d1565b506020820151816001019080519060200190612fe79291906157d1565b5060408201518160020190805190602001906130049291906157d1565b5060608201518160030190805190602001906130219291906157d1565b50608082015181600401908051906020019061303e9291906157d1565b505050505050505050565b600080600090505b600160028054905003811161317f57826040516020018082805190602001908083835b602083106130975780518252602082019150602081019050602083039250613074565b6001836020036101000a03801982511681845116808217855250505050505090500191505060405160208183030381529060405280519060200120600282815481106130df57fe5b9060005260206000200160405160200180828054600181600116156101000203166002900480156131475780601f10613125576101008083540402835291820191613147565b820191906000526020600020905b815481529060010190602001808311613133575b5050915050604051602081830303815290604052805190602001201415613172576001915050613185565b8080600101915050613051565b50600090505b919050565b6000600660008373ffffffffffffffffffffffffffffffffffffffff1673ffffffffffffffffffffffffffffffffffffffff168152602001908152602001600020805490509050919050565b600d826040518082805190602001908083835b6020831061320c57805182526020820191506020810190506020830392506131e9565b6001836020036101000a0380198251168184511680821785525050505050509050019150509081526020016040518091039020604051806020016040528083815250908060018154018082558091505090600182039060005260206000200160009091929091909150600082015181600001555050505050565b60606003826040518082805190602001908083835b602083106132be578051825260208201915060208101905060208303925061329b565b6001836020036101000a03801982511681845116808217855250505050505090500191505090815260200160405180910390208054600181600116156101000203166002900480601f0160208091040260200160405190810160405280929190818152602001828054600181600116156101000203166002900480156133855780601f1061335a57610100808354040283529160200191613385565b820191906000526020600020905b81548152906001019060200180831161336857829003601f168201915b50505050509050919050565b60006060600c836040518082805190602001908083835b602083106133cb57805182526020820191506020810190506020830392506133a8565b6001836020036101000a038019825116818451168082178552505050505050905001915050908152602001604051809103902060000160009054906101000a900473ffffffffffffffffffffffffffffffffffffffff16600c846040518082805190602001908083835b602083106134585780518252602082019150602081019050602083039250613435565b6001836020036101000a0380198251168184511680821785525050505050509050019150509081526020016040518091039020600101808054600181600116156101000203166002900480601f0160208091040260200160405190810160405280929190818152602001828054600181600116156101000203166002900480156135235780601f106134f857610100808354040283529160200191613523565b820191906000526020600020905b81548152906001019060200180831161350657829003601f168201915b5050505050905091509150915091565b6009818154811061354057fe5b9060005260206000209060050201600091509050806000018054600181600116156101000203166002900480601f0160208091040260200160405190810160405280929190818152602001828054600181600116156101000203166002900480156135ec5780601f106135c1576101008083540402835291602001916135ec565b820191906000526020600020905b8154815290600101906020018083116135cf57829003601f168201915b505050505090806001018054600181600116156101000203166002900480601f01602080910402602001604051908101604052809291908181526020018280546001816001161561010002031660029004801561368a5780601f1061365f5761010080835404028352916020019161368a565b820191906000526020600020905b81548152906001019060200180831161366d57829003601f168201915b505050505090806002018054600181600116156101000203166002900480601f0160208091040260200160405190810160405280929190818152602001828054600181600116156101000203166002900480156137285780601f106136fd57610100808354040283529160200191613728565b820191906000526020600020905b81548152906001019060200180831161370b57829003601f168201915b505050505090806003018054600181600116156101000203166002900480601f0160208091040260200160405190810160405280929190818152602001828054600181600116156101000203166002900480156137c65780601f1061379b576101008083540402835291602001916137c6565b820191906000526020600020905b8154815290600101906020018083116137a957829003601f168201915b505050505090806004018054600181600116156101000203166002900480601f0160208091040260200160405190810160405280929190818152602001828054600181600116156101000203166002900480156138645780601f1061383957610100808354040283529160200191613864565b820191906000526020600020905b81548152906001019060200180831161384757829003601f168201915b5050505050905085565b6000600d826040518082805190602001908083835b602083106138a65780518252602082019150602081019050602083039250613883565b6001836020036101000a0380198251168184511680821785525050505050509050019150509081526020016040518091039020805490509050919050565b600080600090505b600660008573ffffffffffffffffffffffffffffffffffffffff1673ffffffffffffffffffffffffffffffffffffffff16815260200190815260200160002080549050811015613a9557600660008573ffffffffffffffffffffffffffffffffffffffff1673ffffffffffffffffffffffffffffffffffffffff168152602001908152602001600020818154811061398057fe5b9060005260206000200160000160405160200180828054600181600116156101000203166002900480156139eb5780601f106139c95761010080835404028352918201916139eb565b820191906000526020600020905b8154815290600101906020018083116139d7575b505091505060405160208183030381529060405280519060200120836040516020018082805190602001908083835b60208310613a3d5780518252602082019150602081019050602083039250613a1a565b6001836020036101000a038019825116818451168082178552505050505050905001915050604051602081830303815290604052805190602001201415613a88576000915050613b6f565b80806001019150506138ec565b50600660008473ffffffffffffffffffffffffffffffffffffffff1673ffffffffffffffffffffffffffffffffffffffff1681526020019081526020016000206040518060200160405280848152509080600181540180825580915050906001820390600052602060002001600090919290919091506000820151816000019080519060200190613b279291906157d1565b505050506007829080600181540180825580915050906001820390600052602060002001600090919290919091509080519060200190613b68929190615851565b5050600190505b92915050565b806001836040518082805190602001908083835b60208310613bac5780518252602082019150602081019050602083039250613b89565b6001836020036101000a03801982511681845116808217855250505050505090500191505090815260200160405180910390209080519060200190613bf2929190615851565b505050565b600b826040518082805190602001908083835b60208310613c2d5780518252602082019150602081019050602083039250613c0a565b6001836020036101000a03801982511681845116808217855250505050505090500191505090815260200160405180910390206040518060200160405280838152509080600181540180825580915050906001820390600052602060002001600090919290919091506000820151816000019080519060200190613cb29291906157d1565b505050505050565b606080606080606060098681548110613ccf57fe5b906000526020600020906005020160000160098781548110613ced57fe5b906000526020600020906005020160010160098881548110613d0b57fe5b906000526020600020906005020160020160098981548110613d2957fe5b906000526020600020906005020160030160098a81548110613d4757fe5b9060005260206000209060050201600401848054600181600116156101000203166002900480601f016020809104026020016040519081016040528092919081815260200182805460018160011615610100020316600290048015613ded5780601f10613dc257610100808354040283529160200191613ded565b820191906000526020600020905b815481529060010190602001808311613dd057829003601f168201915b50505050509450838054600181600116156101000203166002900480601f016020809104026020016040519081016040528092919081815260200182805460018160011615610100020316600290048015613e895780601f10613e5e57610100808354040283529160200191613e89565b820191906000526020600020905b815481529060010190602001808311613e6c57829003601f168201915b50505050509350828054600181600116156101000203166002900480601f016020809104026020016040519081016040528092919081815260200182805460018160011615610100020316600290048015613f255780601f10613efa57610100808354040283529160200191613f25565b820191906000526020600020905b815481529060010190602001808311613f0857829003601f168201915b50505050509250818054600181600116156101000203166002900480601f016020809104026020016040519081016040528092919081815260200182805460018160011615610100020316600290048015613fc15780601f10613f9657610100808354040283529160200191613fc1565b820191906000526020600020905b815481529060010190602001808311613fa457829003601f168201915b50505050509150808054600181600116156101000203166002900480601f01602080910402602001604051908101604052809291908181526020018280546001816001161561010002031660029004801561405d5780601f106140325761010080835404028352916020019161405d565b820191906000526020600020905b81548152906001019060200180831161404057829003601f168201915b505050505090509450945094509450945091939590929450565b6000600d836040518082805190602001908083835b602083106140af578051825260208201915060208101905060208303925061408c565b6001836020036101000a038019825116818451168082178552505050505050905001915050908152602001604051809103902082815481106140ed57fe5b9060005260206000200160000154905092915050565b606060006060600a856040518082805190602001908083835b6020831061413f578051825260208201915060208101905060208303925061411c565b6001836020036101000a0380198251168184511680821785525050505050509050019150509081526020016040518091039020848154811061417d57fe5b9060005260206000209060030201600001600a866040518082805190602001908083835b602083106141c457805182526020820191506020810190506020830392506141a1565b6001836020036101000a0380198251168184511680821785525050505050509050019150509081526020016040518091039020858154811061420257fe5b906000526020600020906003020160010154600a876040518082805190602001908083835b6020831061424a5780518252602082019150602081019050602083039250614227565b6001836020036101000a0380198251168184511680821785525050505050509050019150509081526020016040518091039020868154811061428857fe5b9060005260206000209060030201600201828054600181600116156101000203166002900480601f01602080910402602001604051908101604052809291908181526020018280546001816001161561010002031660029004801561432e5780601f106143035761010080835404028352916020019161432e565b820191906000526020600020905b81548152906001019060200180831161431157829003601f168201915b50505050509250808054600181600116156101000203166002900480601f0160208091040260200160405190810160405280929190818152602001828054600181600116156101000203166002900480156143ca5780601f1061439f576101008083540402835291602001916143ca565b820191906000526020600020905b8154815290600101906020018083116143ad57829003601f168201915b505050505090509250925092509250925092565b600080600090505b600580549050811161451157826040516020018082805190602001908083835b602083106144295780518252602082019150602081019050602083039250614406565b6001836020036101000a038019825116818451168082178552505050505050905001915050604051602081830303815290604052805190602001206005828154811061447157fe5b9060005260206000200160405160200180828054600181600116156101000203166002900480156144d95780601f106144b75761010080835404028352918201916144d9565b820191906000526020600020905b8154815290600101906020018083116144c5575b5050915050604051602081830303815290604052805190602001201415614504576001915050614517565b80806001019150506143e6565b50600090505b919050565b806003836040518082805190602001908083835b602083106145535780518252602082019150602081019050602083039250614530565b6001836020036101000a03801982511681845116808217855250505050505090500191505090815260200160405180910390209080519060200190614599929190615851565b5060058290806001815401808255809150509060018203906000526020600020016000909192909190915090805190602001906145d7929190615851565b50505050565b6000600780549050905090565b60606000826040518082805190602001908083835b6020831061462257805182526020820191506020810190506020830392506145ff565b6001836020036101000a03801982511681845116808217855250505050505090500191505090815260200160405180910390208054600181600116156101000203166002900480601f0160208091040260200160405190810160405280929190818152602001828054600181600116156101000203166002900480156146e95780601f106146be576101008083540402835291602001916146e9565b820191906000526020600020905b8154815290600101906020018083116146cc57829003601f168201915b50505050509050919050565b6060600b836040518082805190602001908083835b6020831061472d578051825260208201915060208101905060208303925061470a565b6001836020036101000a0380198251168184511680821785525050505050509050019150509081526020016040518091039020828154811061476b57fe5b906000526020600020016000018054600181600116156101000203166002900480601f01602080910402602001604051908101604052809291908181526020018280546001816001161561010002031660029004801561480c5780601f106147e15761010080835404028352916020019161480c565b820191906000526020600020905b8154815290600101906020018083116147ef57829003601f168201915b5050505050905092915050565b60606001826040518082805190602001908083835b60208310614851578051825260208201915060208101905060208303925061482e565b6001836020036101000a03801982511681845116808217855250505050505090500191505090815260200160405180910390208054600181600116156101000203166002900480601f0160208091040260200160405190810160405280929190818152602001828054600181600116156101000203166002900480156149185780601f106148ed57610100808354040283529160200191614918565b820191906000526020600020905b8154815290600101906020018083116148fb57829003601f168201915b50505050509050919050565b600a836040518082805190602001908083835b6020831061495a5780518252602082019150602081019050602083039250614937565b6001836020036101000a0380198251168184511680821785525050505050509050019150509081526020016040518091039020604051806060016040528084815260200160008152602001838152509080600181540180825580915050906001820390600052602060002090600302016000909192909190915060008201518160000190805190602001906149f09291906157d1565b50602082015181600101556040820151816002019080519060200190614a179291906157d1565b50505050505050565b816040516020018082805190602001908083835b60208310614a575780518252602082019150602081019050602083039250614a34565b6001836020036101000a03801982511681845116808217855250505050505090500191505060405160208183030381529060405280519060200120600a846040518082805190602001908083835b60208310614ac85780518252602082019150602081019050602083039250614aa5565b6001836020036101000a03801982511681845116808217855250505050505090500191505090815260200160405180910390208281548110614b0657fe5b90600052602060002090600302016000016040516020018082805460018160011615610100020316600290048015614b755780601f10614b53576101008083540402835291820191614b75565b820191906000526020600020905b815481529060010190602001808311614b61575b50509150506040516020818303038152906040528051906020012014614b9a57600080fd5b614ba48382615739565b505050565b606060078281548110614bb857fe5b906000526020600020018054600181600116156101000203166002900480601f016020809104026020016040519081016040528092919081815260200182805460018160011615610100020316600290048015614c565780601f10614c2b57610100808354040283529160200191614c56565b820191906000526020600020905b815481529060010190602001808311614c3957829003601f168201915b50505050509050919050565b6000600580549050905090565b806000836040518082805190602001908083835b60208310614ca65780518252602082019150602081019050602083039250614c83565b6001836020036101000a03801982511681845116808217855250505050505090500191505090815260200160405180910390209080519060200190614cec929190615851565b506002829080600181540180825580915050906001820390600052602060002001600090919290919091509080519060200190614d2a929190615851565b50505050565b60006008826040518082805190602001908083835b60208310614d685780518252602082019150602081019050602083039250614d45565b6001836020036101000a0380198251168184511680821785525050505050509050019150509081526020016040518091039020805490509050919050565b60405180604001604052808373ffffffffffffffffffffffffffffffffffffffff16815260200182815250600c846040518082805190602001908083835b60208310614e075780518252602082019150602081019050602083039250614de4565b6001836020036101000a038019825116818451168082178552505050505050905001915050908152602001604051809103902060008201518160000160006101000a81548173ffffffffffffffffffffffffffffffffffffffff021916908373ffffffffffffffffffffffffffffffffffffffff1602179055506020820151816001019080519060200190614e9d9291906157d1565b50905050505050565b60608060608060606008876040518082805190602001908083835b60208310614ee45780518252602082019150602081019050602083039250614ec1565b6001836020036101000a03801982511681845116808217855250505050505090500191505090815260200160405180910390208681548110614f2257fe5b90600052602060002090600502016000016008886040518082805190602001908083835b60208310614f695780518252602082019150602081019050602083039250614f46565b6001836020036101000a03801982511681845116808217855250505050505090500191505090815260200160405180910390208781548110614fa757fe5b90600052602060002090600502016001016008896040518082805190602001908083835b60208310614fee5780518252602082019150602081019050602083039250614fcb565b6001836020036101000a0380198251168184511680821785525050505050509050019150509081526020016040518091039020888154811061502c57fe5b906000526020600020906005020160020160088a6040518082805190602001908083835b602083106150735780518252602082019150602081019050602083039250615050565b6001836020036101000a038019825116818451168082178552505050505050905001915050908152602001604051809103902089815481106150b157fe5b906000526020600020906005020160030160088b6040518082805190602001908083835b602083106150f857805182526020820191506020810190506020830392506150d5565b6001836020036101000a03801982511681845116808217855250505050505090500191505090815260200160405180910390208a8154811061513657fe5b9060005260206000209060050201600401848054600181600116156101000203166002900480601f0160208091040260200160405190810160405280929190818152602001828054600181600116156101000203166002900480156151dc5780601f106151b1576101008083540402835291602001916151dc565b820191906000526020600020905b8154815290600101906020018083116151bf57829003601f168201915b50505050509450838054600181600116156101000203166002900480601f0160208091040260200160405190810160405280929190818152602001828054600181600116156101000203166002900480156152785780601f1061524d57610100808354040283529160200191615278565b820191906000526020600020905b81548152906001019060200180831161525b57829003601f168201915b50505050509350828054600181600116156101000203166002900480601f0160208091040260200160405190810160405280929190818152602001828054600181600116156101000203166002900480156153145780601f106152e957610100808354040283529160200191615314565b820191906000526020600020905b8154815290600101906020018083116152f757829003601f168201915b50505050509250818054600181600116156101000203166002900480601f0160208091040260200160405190810160405280929190818152602001828054600181600116156101000203166002900480156153b05780601f10615385576101008083540402835291602001916153b0565b820191906000526020600020905b81548152906001019060200180831161539357829003601f168201915b50505050509150808054600181600116156101000203166002900480601f01602080910402602001604051908101604052809291908181526020018280546001816001161561010002031660029004801561544c5780601f106154215761010080835404028352916020019161544c565b820191906000526020600020905b81548152906001019060200180831161542f57829003601f168201915b50505050509050945094509450945094509295509295909350565b806009858154811061547557fe5b90600052602060002090600502016004019080519060200190615499929190615851565b50806008836040518082805190602001908083835b602083106154d157805182526020820191506020810190506020830392506154ae565b6001836020036101000a0380198251168184511680821785525050505050509050019150509081526020016040518091039020848154811061550f57fe5b90600052602060002090600502016004019080519060200190615533929190615851565b5050505050565b806004836040518082805190602001908083835b60208310615571578051825260208201915060208101905060208303925061554e565b6001836020036101000a038019825116818451168082178552505050505050905001915050908152602001604051809103902090805190602001906155b7929190615851565b505050565b6060600660008473ffffffffffffffffffffffffffffffffffffffff1673ffffffffffffffffffffffffffffffffffffffff168152602001908152602001600020828154811061560857fe5b906000526020600020016000018054600181600116156101000203166002900480601f0160208091040260200160405190810160405280929190818152602001828054600181600116156101000203166002900480156156a95780601f1061567e576101008083540402835291602001916156a9565b820191906000526020600020905b81548152906001019060200180831161568c57829003601f168201915b5050505050905092915050565b6000600a826040518082805190602001908083835b602083106156ee57805182526020820191506020810190506020830392506156cb565b6001836020036101000a0380198251168184511680821785525050505050509050019150509081526020016040518091039020805490509050919050565b6000600980549050905090565b6001600a836040518082805190602001908083835b60208310615771578051825260208201915060208101905060208303925061574e565b6001836020036101000a038019825116818451168082178552505050505050905001915050908152602001604051809103902082815481106157af57fe5b9060005260206000209060030201600101600082825401925050819055505050565b828054600181600116156101000203166002900490600052602060002090601f016020900481019282601f1061581257805160ff1916838001178555615840565b82800160010185558215615840579182015b8281111561583f578251825591602001919060010190615824565b5b50905061584d91906158d1565b5090565b828054600181600116156101000203166002900490600052602060002090601f016020900481019282601f1061589257805160ff19168380011785556158c0565b828001600101855582156158c0579182015b828111156158bf5782518255916020019190600101906158a4565b5b5090506158cd91906158d1565b5090565b6158f391905b808211156158ef5760008160009055506001016158d7565b5090565b9056fea265627a7a723158204e12dc276aab278b81c8d41b95ae3ac80bdc2ec9605abc0e816bcb0695987cdf64736f6c63430005100032",
  "source": "pragma solidity ^0.5.0;\n\ncontract Election{\n\n    //-------------------------Credentails Area--------------------------------------\n\n    //Organizer mapping of Credentials and Personal Information, mapping of (Username => hash)\n    mapping (string => string) OrganizerCredentials;\n    mapping (string => string) OrganizerPersonal;\n    string[] OrganizerUsername;\n\n    //Candidate mapping of Credentials and Personal Information, mapping of (Username => hash)\n    mapping (string => string) CandidateCredentials;\n    mapping (string => string) CandidatePersonal;\n    string[] CandidateUsername;\n\n    //------------------------Organizer's  Elections Area------------------------------\n\n    //struct for contain number of Elections in place\n    struct ElectionHash{\n        string hash;\n    } \n\n    //mapping (OrganizerAddress => allElectionsOfOrganizer)\n    mapping (address => ElectionHash[]) OrganizerElections;\n    string[] public Elections;\n\n    //------------------------ Candidate's Nomination Requests -----------------------------\n\n    //mapping for candidate request for particular election\n    struct RequestHash{\n        string username;\n        string electionHash;\n        string time;\n        string place;\n        string status;\n    }\n\n    //mapping (Candidateusername => RequestHash)\n    mapping (string => RequestHash[]) CandidateRequests;\n    \n    //Array of Request struct\n    RequestHash[] public ElectionRequests;\n\n    //------------------------ Election's Candidate Area -------------------------------\n\n    struct CandidateOfElection{\n        string username;\n        uint votes;\n        string place;\n    }\n\n    //mapping of (electionHash => allCandidatesOfElection)\n    mapping (string => CandidateOfElection[]) SelectedCandidates;\n\n    //--------------------------- Voter's Area --------------------------------------\n\n    struct Voter{\n        string voter;\n    }\n\n    struct VoterCredentails{\n        address accAddress;\n        string password;\n    }\n\n    //mapping of (electionHash => VoterHash)\n    mapping (string => Voter[]) ElectionVoterPool;\n\n    //mapping for (VoterHash => VoterCredentials)\n    mapping (string => VoterCredentails) VotersAccount;\n\n    //--------------------------- Aadhaar Area -------------------------------------\n\n    struct AadhaarCard{\n        uint aadhaar;\n    }\n\n    //mapping for (electionHash => aadhaarCard[]) for verifying the adhaar is voted only once for \n    mapping (string => AadhaarCard[]) AadhaarCheck;\n\n    //-------------------- Functions Area ------------------------------------------\n\n\n\n\n\n    //********************************** function for Organizers *******************\n\n    function setOrganizerCredentials(string memory _username, string memory _hash) public {\n        OrganizerCredentials[_username] = _hash;\n        OrganizerUsername.push(_username);\n    }\n\n    function setOrganizerPersonal(string memory _username, string memory _hash) public {\n        OrganizerPersonal[_username] = _hash;\n    }\n\n    function getOrganizerCredentials(string memory _username) public view returns(string memory){\n        return OrganizerCredentials[_username];\n    }\n\n    function getOrganizerPersonal(string memory _username) public view returns(string memory){\n        return OrganizerPersonal[_username];\n    }\n\n    function getOrganizersCount() public view returns(uint){\n        return OrganizerUsername.length;\n    }\n\n    function findOrganizer(string memory _username) public view returns(bool){\n        for(uint i = 0; i <= OrganizerUsername.length - 1; i++){\n            if(keccak256(abi.encodePacked(OrganizerUsername[i])) == keccak256(abi.encodePacked(_username)))   return true;\n        }\n        return false;\n    }\n\n    //*********************************** function for Elections ***************************************\n    \n    function addElection(address _add, string memory _hash) public returns(bool){\n        for(uint i = 0; i < OrganizerElections[_add].length ; i++){\n            if(keccak256(abi.encodePacked(_hash)) == keccak256(abi.encodePacked(OrganizerElections[_add][i].hash))) return false;\n        }\n        OrganizerElections[_add].push(ElectionHash(_hash));\n        Elections.push(_hash);\n        return true;\n    }\n    \n    function getElection(address _add, uint _index) public view returns(string memory){\n        return OrganizerElections[_add][_index].hash;\n    }\n\n    function organizerElectionCount(address _add) public view returns(uint){\n        return OrganizerElections[_add].length;\n    } \n\n    function getElections(uint _index) public view returns(string memory){\n        return Elections[_index];\n    }\n\n    function electionsCount() public view returns(uint){\n        return Elections.length;\n    } \n\n    //******************************* functions for Candidates **************************\n\n    function setCandidateCredentials(string memory _username, string memory _hash) public {\n        CandidateCredentials[_username] = _hash;\n        CandidateUsername.push(_username);\n    }\n\n    function setCandidatePersonal(string memory _username, string memory _hash) public {\n        CandidatePersonal[_username] = _hash;\n    }\n\n    function getCandidateCredentials(string memory _username) public view returns(string memory){\n        return CandidateCredentials[_username];\n    }\n\n    function getCandidatePersonal(string memory _username) public view returns(string memory){\n        return CandidatePersonal[_username];\n    }\n\n    function getCandidatesCount() public view returns(uint){\n        return CandidateUsername.length;\n    }\n\n    function findCandidate(string memory _username) public view returns(bool){\n        for(uint i = 0; i <= CandidateUsername.length; i++){\n            if(keccak256(abi.encodePacked(CandidateUsername[i])) == keccak256(abi.encodePacked(_username))) return true;\n        }\n        return false;\n    }\n\n    //********************************************* function for Election Requests *************************\n\n    function setRequest(string memory _username, string memory _electionHash, string memory _time, string memory _place, string memory _status) public {\n        CandidateRequests[_username].push(RequestHash(_username, _electionHash, _time, _place, _status));\n        ElectionRequests.push(RequestHash(_username, _electionHash, _time, _place, _status));\n    }\n\n    function getRequest(string memory _username, uint _index) public view returns(string memory, string memory, string memory, string memory, string memory){\n        return (\n                    CandidateRequests[_username][_index].username, \n                    CandidateRequests[_username][_index].electionHash, \n                    CandidateRequests[_username][_index].time, \n                    CandidateRequests[_username][_index].place, \n                    CandidateRequests[_username][_index].status\n                );\n    }\n\n    function candidateRequestsCount(string memory _username) public view returns(uint){\n        return CandidateRequests[_username].length;\n    }\n\n    function getAllRequest(uint _index) public view returns(string memory, string memory, string memory, string memory, string memory){\n        return (\n                    ElectionRequests[_index].username, \n                    ElectionRequests[_index].electionHash, \n                    ElectionRequests[_index].time, \n                    ElectionRequests[_index].place, \n                    ElectionRequests[_index].status\n                );\n    }\n\n    function requestsCount() public view returns(uint){\n        return ElectionRequests.length;\n    } \n\n    function updateRequestStatus(uint _allRequestIndex, uint _candidateRequestIndex, string memory _username, string memory _status) public {\n        ElectionRequests[_allRequestIndex].status = _status;\n        CandidateRequests[_username][_candidateRequestIndex].status = _status;\n    }\n\n    //**************************** function for selected Candidate of Election ***********************\n\n    function addCandidate(string memory _electionHash, string memory _username, string memory _place) public {\n        SelectedCandidates[_electionHash].push(CandidateOfElection(_username, 0, _place));\n    }\n\n    function countElectionCandidates(string memory _electionHash) public view returns(uint){\n       return SelectedCandidates[_electionHash].length;\n    }\n\n    function getSelectedCandidates(string memory _electionHash, uint _index) public view returns(string memory, uint, string memory){\n       return (SelectedCandidates[_electionHash][_index].username, SelectedCandidates[_electionHash][_index].votes, SelectedCandidates[_electionHash][_index].place);\n    }\n\n    //*************************** function for voting for the candidate of election ************************\n    \n\n    function vote(string memory _electionHash, uint _index) internal {\n        SelectedCandidates[_electionHash][_index].votes += 1;\n    }\n\n    function voteSelectedCandidates(string memory _electionHash, string memory _username, uint _index) public {\n        \n        require(keccak256(abi.encodePacked(SelectedCandidates[_electionHash][_index].username)) == keccak256(abi.encodePacked(_username)));\n        vote(_electionHash, _index);\n    } \n\n    //*************************** functions for checking the Aadhaar Card voted or not **********************\n\n    //fucntion for finding the total number of voted aadhaar card\n    function aadhaarCount(string memory _electionHash) public view returns(uint){\n        return AadhaarCheck[_electionHash].length;\n    }\n\n    //function for find the aadhaar card for chechking that wheather it is voted or not\n    function checkAadhaar(string memory _electionHash, uint _index) public view returns(uint){\n        return AadhaarCheck[_electionHash][_index].aadhaar;\n    }\n\n    //function for adding the Aadhaar card to the Election Poll\n    function addAadhaar(string memory _electionHash, uint _aadhaar)public {\n        AadhaarCheck[_electionHash].push(AadhaarCard(_aadhaar));\n    }\n\n    //***************************** Functions for Voter ***********************************************\n\n    //function for adding the voter credentails with its Object Hash\n    function addVoterAccount(string memory _voterHash, address _add, string memory _password)public {\n        VotersAccount[_voterHash] = VoterCredentails(_add, _password);\n    }\n\n    //function for get the Account details of the voter\n    function getVoterAccount(string memory _voterHash)public view returns(address, string memory){\n        return (VotersAccount[_voterHash].accAddress, VotersAccount[_voterHash].password);\n    }\n\n    //function for inserting the Voter credentials into thier respective elections\n    function addVoterToElection(string memory _electionHash, string memory _voterHash)public {\n        ElectionVoterPool[_electionHash].push(Voter(_voterHash));\n    }\n\n    //function for get the voters associated with election\n    function getVoterToElection(string memory _electionHash, uint _index)public view returns(string memory){\n        return ElectionVoterPool[_electionHash][_index].voter;\n    }\n}",
  "sourcePath": "C:\\Users\\Bhawna\\Desktop\\Bhawna Project\\DigiVote-master\\DigiVote-master\\contracts\\Election.sol",
  "compiler": {
    "name": "solc",
    "version": "0.5.16+commit.9c3226ce.Emscripten.clang"
  },
  "schemaVersion": "3.2.0",
  "updatedAt": "2020-06-09T07:39:30.180Z",
  "networkType": "ethereum",
  "devdoc": {
    "methods": {}
  },
  "userdoc": {
    "methods": {}
  }
}